{
  "address": "0x0165878A594ca255338adfa4d48449f69242Eb8F",
  "abi": [
    {
      "inputs": [
        {
          "internalType": "address",
          "name": "_rewardsToken",
          "type": "address"
        },
        {
          "internalType": "uint256",
          "name": "_rewardsPerBlock",
          "type": "uint256"
        },
        {
          "internalType": "uint256",
          "name": "_startBlock",
          "type": "uint256"
        },
        {
          "internalType": "uint256",
          "name": "_endBlock",
          "type": "uint256"
        }
      ],
      "stateMutability": "nonpayable",
      "type": "constructor"
    },
    {
      "anonymous": false,
      "inputs": [
        {
          "indexed": true,
          "internalType": "address",
          "name": "user",
          "type": "address"
        },
        {
          "indexed": true,
          "internalType": "uint256",
          "name": "pid",
          "type": "uint256"
        },
        {
          "indexed": false,
          "internalType": "uint256",
          "name": "amount",
          "type": "uint256"
        }
      ],
      "name": "Deposit",
      "type": "event"
    },
    {
      "anonymous": false,
      "inputs": [
        {
          "indexed": true,
          "internalType": "address",
          "name": "user",
          "type": "address"
        },
        {
          "indexed": true,
          "internalType": "uint256",
          "name": "pid",
          "type": "uint256"
        },
        {
          "indexed": false,
          "internalType": "uint256",
          "name": "amount",
          "type": "uint256"
        }
      ],
      "name": "EmergencyWithdraw",
      "type": "event"
    },
    {
      "anonymous": false,
      "inputs": [
        {
          "indexed": true,
          "internalType": "address",
          "name": "previousOwner",
          "type": "address"
        },
        {
          "indexed": true,
          "internalType": "address",
          "name": "newOwner",
          "type": "address"
        }
      ],
      "name": "OwnershipTransferred",
      "type": "event"
    },
    {
      "anonymous": false,
      "inputs": [
        {
          "indexed": true,
          "internalType": "address",
          "name": "user",
          "type": "address"
        },
        {
          "indexed": true,
          "internalType": "uint256",
          "name": "pid",
          "type": "uint256"
        },
        {
          "indexed": false,
          "internalType": "uint256",
          "name": "amount",
          "type": "uint256"
        }
      ],
      "name": "Withdraw",
      "type": "event"
    },
    {
      "inputs": [
        {
          "internalType": "uint256",
          "name": "_allocPoint",
          "type": "uint256"
        },
        {
          "internalType": "contract IERC20",
          "name": "_lpToken",
          "type": "address"
        },
        {
          "internalType": "bool",
          "name": "_withUpdate",
          "type": "bool"
        }
      ],
      "name": "add",
      "outputs": [],
      "stateMutability": "nonpayable",
      "type": "function"
    },
    {
      "inputs": [
        {
          "internalType": "uint256",
          "name": "_pid",
          "type": "uint256"
        },
        {
          "internalType": "uint256",
          "name": "_amount",
          "type": "uint256"
        }
      ],
      "name": "deposit",
      "outputs": [],
      "stateMutability": "nonpayable",
      "type": "function"
    },
    {
      "inputs": [
        {
          "internalType": "uint256",
          "name": "_pid",
          "type": "uint256"
        }
      ],
      "name": "emergencyWithdraw",
      "outputs": [],
      "stateMutability": "nonpayable",
      "type": "function"
    },
    {
      "inputs": [],
      "name": "endBlock",
      "outputs": [
        {
          "internalType": "uint256",
          "name": "",
          "type": "uint256"
        }
      ],
      "stateMutability": "view",
      "type": "function"
    },
    {
      "inputs": [
        {
          "internalType": "uint256",
          "name": "_from",
          "type": "uint256"
        },
        {
          "internalType": "uint256",
          "name": "_to",
          "type": "uint256"
        }
      ],
      "name": "getMultiplier",
      "outputs": [
        {
          "internalType": "uint256",
          "name": "",
          "type": "uint256"
        }
      ],
      "stateMutability": "view",
      "type": "function"
    },
    {
      "inputs": [],
      "name": "massUpdatePools",
      "outputs": [],
      "stateMutability": "nonpayable",
      "type": "function"
    },
    {
      "inputs": [],
      "name": "owner",
      "outputs": [
        {
          "internalType": "address",
          "name": "",
          "type": "address"
        }
      ],
      "stateMutability": "view",
      "type": "function"
    },
    {
      "inputs": [
        {
          "internalType": "uint256",
          "name": "_pid",
          "type": "uint256"
        },
        {
          "internalType": "address",
          "name": "_user",
          "type": "address"
        }
      ],
      "name": "pendingRewards",
      "outputs": [
        {
          "internalType": "uint256",
          "name": "",
          "type": "uint256"
        }
      ],
      "stateMutability": "view",
      "type": "function"
    },
    {
      "inputs": [
        {
          "internalType": "uint256",
          "name": "",
          "type": "uint256"
        }
      ],
      "name": "poolInfo",
      "outputs": [
        {
          "internalType": "contract IERC20",
          "name": "lpToken",
          "type": "address"
        },
        {
          "internalType": "uint256",
          "name": "allocPoint",
          "type": "uint256"
        },
        {
          "internalType": "uint256",
          "name": "lastRewardBlock",
          "type": "uint256"
        },
        {
          "internalType": "uint256",
          "name": "accUniswapV2TokenPerShare",
          "type": "uint256"
        }
      ],
      "stateMutability": "view",
      "type": "function"
    },
    {
      "inputs": [],
      "name": "poolLength",
      "outputs": [
        {
          "internalType": "uint256",
          "name": "",
          "type": "uint256"
        }
      ],
      "stateMutability": "view",
      "type": "function"
    },
    {
      "inputs": [],
      "name": "renounceOwnership",
      "outputs": [],
      "stateMutability": "nonpayable",
      "type": "function"
    },
    {
      "inputs": [
        {
          "internalType": "address",
          "name": "_origin",
          "type": "address"
        }
      ],
      "name": "revokeUniswapV2Token",
      "outputs": [],
      "stateMutability": "nonpayable",
      "type": "function"
    },
    {
      "inputs": [],
      "name": "rewardsPerBlock",
      "outputs": [
        {
          "internalType": "uint256",
          "name": "",
          "type": "uint256"
        }
      ],
      "stateMutability": "view",
      "type": "function"
    },
    {
      "inputs": [],
      "name": "rewardsToken",
      "outputs": [
        {
          "internalType": "contract IUniswapV2Token",
          "name": "",
          "type": "address"
        }
      ],
      "stateMutability": "view",
      "type": "function"
    },
    {
      "inputs": [
        {
          "internalType": "uint256",
          "name": "_pid",
          "type": "uint256"
        },
        {
          "internalType": "uint256",
          "name": "_allocPoint",
          "type": "uint256"
        },
        {
          "internalType": "bool",
          "name": "_withUpdate",
          "type": "bool"
        }
      ],
      "name": "set",
      "outputs": [],
      "stateMutability": "nonpayable",
      "type": "function"
    },
    {
      "inputs": [],
      "name": "startBlock",
      "outputs": [
        {
          "internalType": "uint256",
          "name": "",
          "type": "uint256"
        }
      ],
      "stateMutability": "view",
      "type": "function"
    },
    {
      "inputs": [],
      "name": "totalAllocPoint",
      "outputs": [
        {
          "internalType": "uint256",
          "name": "",
          "type": "uint256"
        }
      ],
      "stateMutability": "view",
      "type": "function"
    },
    {
      "inputs": [
        {
          "internalType": "address",
          "name": "newOwner",
          "type": "address"
        }
      ],
      "name": "transferOwnership",
      "outputs": [],
      "stateMutability": "nonpayable",
      "type": "function"
    },
    {
      "inputs": [
        {
          "internalType": "uint256",
          "name": "_pid",
          "type": "uint256"
        }
      ],
      "name": "updatePool",
      "outputs": [],
      "stateMutability": "nonpayable",
      "type": "function"
    },
    {
      "inputs": [
        {
          "internalType": "uint256",
          "name": "",
          "type": "uint256"
        },
        {
          "internalType": "address",
          "name": "",
          "type": "address"
        }
      ],
      "name": "userInfo",
      "outputs": [
        {
          "internalType": "uint256",
          "name": "amount",
          "type": "uint256"
        },
        {
          "internalType": "uint256",
          "name": "rewardDebt",
          "type": "uint256"
        }
      ],
      "stateMutability": "view",
      "type": "function"
    },
    {
      "inputs": [
        {
          "internalType": "uint256",
          "name": "_pid",
          "type": "uint256"
        },
        {
          "internalType": "uint256",
          "name": "_amount",
          "type": "uint256"
        }
      ],
      "name": "withdraw",
      "outputs": [],
      "stateMutability": "nonpayable",
      "type": "function"
    }
  ],
  "transactionHash": "0x58ffddf561a4eac9329ba710f3385cde4360f68e4cf5d659d3c1c1eee016466e",
  "args": [
    "0x5FC8d32690cc91D4c39d9d3abcBD16989F875707",
    "1000000000000000",
    "86417",
    "691217"
  ],
  "numDeployments": 1,
  "solcInputHash": "3f1530e6cb9cda9422ad0e69f062692b",
  "bytecode": "0x6080604052600060065534801561001557600080fd5b5060405161166b38038061166b833981016040819052610034916100c3565b61003d33610073565b60018055600280546001600160a01b0319166001600160a01b03959095169490941790935560039190915560075560085561010e565b600080546001600160a01b038381166001600160a01b0319831681178455604051919092169283917f8be0079c531659141344cd1fd0a4f28419497f9722a3daafe3b4186f6b6457e09190a35050565b600080600080608085870312156100d957600080fd5b84516001600160a01b03811681146100f057600080fd5b60208601516040870151606090970151919890975090945092505050565b61154e8061011d6000396000f3fe608060405234801561001057600080fd5b50600436106101775760003560e01c8063630b5ba1116100d857806393f1a40b1161008c578063d4d4343f11610066578063d4d4343f1461030a578063e2bbb1581461031d578063f2fde38b1461033057600080fd5b806393f1a40b1461029d578063d18df53c146102e4578063d1af0c7d146102f757600080fd5b8063715018a6116100bd578063715018a61461025d5780638da5cb5b146102655780638dbb1e3a1461028a57600080fd5b8063630b5ba11461024257806364482f791461024a57600080fd5b8063441a3e701161012f57806351eb05a61161011457806351eb05a6146102135780635312ea8e146102265780635eeb67101461023957600080fd5b8063441a3e70146101f757806348cd4cb11461020a57600080fd5b80631526fe27116101605780631526fe271461019c57806317caf6f1146101d95780631eaaa045146101e257600080fd5b8063081e3eda1461017c578063083c632314610193575b600080fd5b6004545b6040519081526020015b60405180910390f35b61018060085481565b6101af6101aa3660046112d9565b610343565b604080516001600160a01b039095168552602085019390935291830152606082015260800161018a565b61018060065481565b6101f56101f0366004611315565b610387565b005b6101f5610205366004611357565b6104c3565b61018060075481565b6101f56102213660046112d9565b610638565b6101f56102343660046112d9565b6107ee565b61018060035481565b6101f561089d565b6101f5610258366004611379565b6108c4565b6101f5610951565b6000546001600160a01b03165b6040516001600160a01b03909116815260200161018a565b610180610298366004611357565b610965565b6102cf6102ab3660046113a7565b60056020908152600092835260408084209091529082529020805460019091015482565b6040805192835260208301919091520161018a565b6101806102f23660046113a7565b6109a5565b600254610272906001600160a01b031681565b6101f56103183660046113d7565b610b13565b6101f561032b366004611357565b610b7d565b6101f561033e3660046113d7565b610c95565b6004818154811061035357600080fd5b600091825260209091206004909102018054600182015460028301546003909301546001600160a01b039092169350919084565b61038f610d22565b801561039d5761039d61089d565b600060075443116103b0576007546103b2565b435b6006549091506103c29085610d7c565b600655604080516080810182526001600160a01b03948516815260208101958652908101918252600060608201818152600480546001810182559281905292517f8a35acfbc15ff81a39ae7d344fd709f28e8600b4aa8c65c6b64bfe7fe36bd19b92909302918201805473ffffffffffffffffffffffffffffffffffffffff1916939096169290921790945593517f8a35acfbc15ff81a39ae7d344fd709f28e8600b4aa8c65c6b64bfe7fe36bd19c840155517f8a35acfbc15ff81a39ae7d344fd709f28e8600b4aa8c65c6b64bfe7fe36bd19d8301555090517f8a35acfbc15ff81a39ae7d344fd709f28e8600b4aa8c65c6b64bfe7fe36bd19e90910155565b6104cb610d8f565b6000600483815481106104e0576104e06113f4565b60009182526020808320868452600582526040808520338652909252922080546004909202909201925083111561055e5760405162461bcd60e51b815260206004820152601260248201527f77697468647261773a206e6f7420676f6f64000000000000000000000000000060448201526064015b60405180910390fd5b61056784610638565b60006105a1826001015461059b64e8d4a5100061059587600301548760000154610de890919063ffffffff16565b90610df4565b90610e00565b90506105ad3382610e0c565b81546105b99085610e00565b80835560038401546105d69164e8d4a51000916105959190610de8565b600183015582546105f1906001600160a01b03163386610f2f565b604051848152859033907ff279e6a1f5e320cca91135676d9cb6e44ca8a08c0b88342bcdb1144f6511b5689060200160405180910390a350505061063460018055565b5050565b60006004828154811061064d5761064d6113f4565b906000526020600020906004020190508060020154431161066c575050565b80546040516370a0823160e01b81523060048201526000916001600160a01b0316906370a0823190602401602060405180830381865afa1580156106b4573d6000803e3d6000fd5b505050506040513d601f19601f820116820180604052508101906106d8919061140a565b9050806000036106ed57504360029091015550565b6008544311801561070357506008548260020154115b1561070d57505050565b600061071d836002015443610965565b9050600061074a600654610595866001015461074460035487610de890919063ffffffff16565b90610de8565b6002546040516340c10f1960e01b8152306004820152602481018390529192506001600160a01b0316906340c10f1990604401600060405180830381600087803b15801561079757600080fd5b505af11580156107ab573d6000803e3d6000fd5b505050506107d96107ce8461059564e8d4a5100085610de890919063ffffffff16565b600386015490610d7c565b60038501555050436002909201919091555050565b6107f6610d8f565b60006004828154811061080b5761080b6113f4565b60009182526020808320858452600582526040808520338087529352909320805460049093029093018054909450610850926001600160a01b03919091169190610f2f565b8054604051908152839033907fbb757047c2b5f3974fe26b7c10f732e7bce710b0952a71082702781e62ae05959060200160405180910390a3600080825560019182015580555050565b50565b60045460005b81811015610634576108b481610638565b6108bd81611439565b90506108a3565b6108cc610d22565b80156108da576108da61089d565b61091d82610917600486815481106108f4576108f46113f4565b906000526020600020906004020160010154600654610e0090919063ffffffff16565b90610d7c565b6006819055508160048481548110610937576109376113f4565b906000526020600020906004020160010181905550505050565b610959610d22565b6109636000610fbf565b565b600060085482116109815761097a8284610e00565b905061099f565b60085483106109925750600061099f565b60085461097a9084610e00565b92915050565b600080600484815481106109bb576109bb6113f4565b600091825260208083208784526005825260408085206001600160a01b038981168752935280852060049485029092016003810154815492516370a0823160e01b8152309681019690965290965091949193919216906370a0823190602401602060405180830381865afa158015610a37573d6000803e3d6000fd5b505050506040513d601f19601f82011682018060405250810190610a5b919061140a565b9050836002015443118015610a7557506008548460020154105b8015610a8057508015155b15610ae0576000610a95856002015443610965565b90506000610abc600654610595886001015461074460035487610de890919063ffffffff16565b9050610adb610ad4846105958464e8d4a51000610de8565b8590610d7c565b935050505b610b08836001015461059b64e8d4a51000610595868860000154610de890919063ffffffff16565b979650505050505050565b610b1b610d22565b60025460405163f2fde38b60e01b81526001600160a01b0383811660048301529091169063f2fde38b90602401600060405180830381600087803b158015610b6257600080fd5b505af1158015610b76573d6000803e3d6000fd5b5050505050565b610b85610d8f565b600060048381548110610b9a57610b9a6113f4565b60009182526020808320868452600582526040808520338652909252922060049091029091019150610bcb84610638565b805415610c0e576000610c00826001015461059b64e8d4a5100061059587600301548760000154610de890919063ffffffff16565b9050610c0c3382610e0c565b505b8154610c25906001600160a01b031633308661101c565b8054610c319084610d7c565b8082556003830154610c4e9164e8d4a51000916105959190610de8565b6001820155604051838152849033907f90890809c654f11d6e72a28fa60149770a0d11ec6c92319d6ceb2bb0a4ea1a159060200160405180910390a3505061063460018055565b610c9d610d22565b6001600160a01b038116610d195760405162461bcd60e51b815260206004820152602660248201527f4f776e61626c653a206e6577206f776e657220697320746865207a65726f206160448201527f64647265737300000000000000000000000000000000000000000000000000006064820152608401610555565b61089a81610fbf565b6000546001600160a01b031633146109635760405162461bcd60e51b815260206004820181905260248201527f4f776e61626c653a2063616c6c6572206973206e6f7420746865206f776e65726044820152606401610555565b6000610d888284611452565b9392505050565b600260015403610de15760405162461bcd60e51b815260206004820152601f60248201527f5265656e7472616e637947756172643a207265656e7472616e742063616c6c006044820152606401610555565b6002600155565b6000610d888284611465565b6000610d88828461147c565b6000610d88828461149e565b6002546040516370a0823160e01b81523060048201526000916001600160a01b0316906370a08231906024016020604051808303816000875af1158015610e57573d6000803e3d6000fd5b505050506040513d601f19601f82011682018060405250810190610e7b919061140a565b905080821115610ef15760025460405163a9059cbb60e01b81526001600160a01b038581166004830152602482018490529091169063a9059cbb906044015b600060405180830381600087803b158015610ed457600080fd5b505af1158015610ee8573d6000803e3d6000fd5b50505050505050565b60025460405163a9059cbb60e01b81526001600160a01b038581166004830152602482018590529091169063a9059cbb90604401610eba565b505050565b6040516001600160a01b038316602482015260448101829052610f2a90849063a9059cbb60e01b906064015b60408051601f198184030181529190526020810180517bffffffffffffffffffffffffffffffffffffffffffffffffffffffff167fffffffff000000000000000000000000000000000000000000000000000000009093169290921790915261105a565b600080546001600160a01b0383811673ffffffffffffffffffffffffffffffffffffffff19831681178455604051919092169283917f8be0079c531659141344cd1fd0a4f28419497f9722a3daafe3b4186f6b6457e09190a35050565b6040516001600160a01b03808516602483015283166044820152606481018290526110549085906323b872dd60e01b90608401610f5b565b50505050565b60006110af826040518060400160405280602081526020017f5361666545524332303a206c6f772d6c6576656c2063616c6c206661696c6564815250856001600160a01b03166111429092919063ffffffff16565b90508051600014806110d05750808060200190518101906110d091906114b1565b610f2a5760405162461bcd60e51b815260206004820152602a60248201527f5361666545524332303a204552433230206f7065726174696f6e20646964206e60448201527f6f742073756363656564000000000000000000000000000000000000000000006064820152608401610555565b60606111518484600085611159565b949350505050565b6060824710156111d15760405162461bcd60e51b815260206004820152602660248201527f416464726573733a20696e73756666696369656e742062616c616e636520666f60448201527f722063616c6c00000000000000000000000000000000000000000000000000006064820152608401610555565b600080866001600160a01b031685876040516111ed91906114f2565b60006040518083038185875af1925050503d806000811461122a576040519150601f19603f3d011682016040523d82523d6000602084013e61122f565b606091505b5091509150610b0887838387606083156112aa5782516000036112a3576001600160a01b0385163b6112a35760405162461bcd60e51b815260206004820152601d60248201527f416464726573733a2063616c6c20746f206e6f6e2d636f6e74726163740000006044820152606401610555565b5081611151565b61115183838151156112bf5781518083602001fd5b8060405162461bcd60e51b8152600401610555919061150e565b6000602082840312156112eb57600080fd5b5035919050565b6001600160a01b038116811461089a57600080fd5b801515811461089a57600080fd5b60008060006060848603121561132a57600080fd5b83359250602084013561133c816112f2565b9150604084013561134c81611307565b809150509250925092565b6000806040838503121561136a57600080fd5b50508035926020909101359150565b60008060006060848603121561138e57600080fd5b8335925060208401359150604084013561134c81611307565b600080604083850312156113ba57600080fd5b8235915060208301356113cc816112f2565b809150509250929050565b6000602082840312156113e957600080fd5b8135610d88816112f2565b634e487b7160e01b600052603260045260246000fd5b60006020828403121561141c57600080fd5b5051919050565b634e487b7160e01b600052601160045260246000fd5b60006001820161144b5761144b611423565b5060010190565b8082018082111561099f5761099f611423565b808202811582820484141761099f5761099f611423565b60008261149957634e487b7160e01b600052601260045260246000fd5b500490565b8181038181111561099f5761099f611423565b6000602082840312156114c357600080fd5b8151610d8881611307565b60005b838110156114e95781810151838201526020016114d1565b50506000910152565b600082516115048184602087016114ce565b9190910192915050565b602081526000825180602084015261152d8160408501602087016114ce565b601f01601f1916919091016040019291505056fea164736f6c6343000811000a",
  "devdoc": {
    "kind": "dev",
    "methods": {
      "owner()": {
        "details": "Returns the address of the current owner."
      },
      "renounceOwnership()": {
        "details": "Leaves the contract without owner. It will not be possible to call `onlyOwner` functions. Can only be called by the current owner. NOTE: Renouncing ownership will leave the contract without an owner, thereby disabling any functionality that is only available to the owner."
      },
      "transferOwnership(address)": {
        "details": "Transfers ownership of the contract to a new account (`newOwner`). Can only be called by the current owner."
      }
    },
    "version": 1
  },
  "userdoc": {
    "kind": "user",
    "methods": {},
    "version": 1
  },
  "storageLayout": {
    "storage": [
      {
        "astId": 7,
        "contract": "contracts/MasterChef.sol:MasterChef",
        "label": "_owner",
        "offset": 0,
        "slot": "0",
        "type": "t_address"
      },
      {
        "astId": 250,
        "contract": "contracts/MasterChef.sol:MasterChef",
        "label": "_status",
        "offset": 0,
        "slot": "1",
        "type": "t_uint256"
      },
      {
        "astId": 6725,
        "contract": "contracts/MasterChef.sol:MasterChef",
        "label": "rewardsToken",
        "offset": 0,
        "slot": "2",
        "type": "t_contract(IUniswapV2Token)14882"
      },
      {
        "astId": 6727,
        "contract": "contracts/MasterChef.sol:MasterChef",
        "label": "rewardsPerBlock",
        "offset": 0,
        "slot": "3",
        "type": "t_uint256"
      },
      {
        "astId": 6731,
        "contract": "contracts/MasterChef.sol:MasterChef",
        "label": "poolInfo",
        "offset": 0,
        "slot": "4",
        "type": "t_array(t_struct(PoolInfo)6722_storage)dyn_storage"
      },
      {
        "astId": 6738,
        "contract": "contracts/MasterChef.sol:MasterChef",
        "label": "userInfo",
        "offset": 0,
        "slot": "5",
        "type": "t_mapping(t_uint256,t_mapping(t_address,t_struct(UserInfo)6712_storage))"
      },
      {
        "astId": 6741,
        "contract": "contracts/MasterChef.sol:MasterChef",
        "label": "totalAllocPoint",
        "offset": 0,
        "slot": "6",
        "type": "t_uint256"
      },
      {
        "astId": 6743,
        "contract": "contracts/MasterChef.sol:MasterChef",
        "label": "startBlock",
        "offset": 0,
        "slot": "7",
        "type": "t_uint256"
      },
      {
        "astId": 6745,
        "contract": "contracts/MasterChef.sol:MasterChef",
        "label": "endBlock",
        "offset": 0,
        "slot": "8",
        "type": "t_uint256"
      }
    ],
    "types": {
      "t_address": {
        "encoding": "inplace",
        "label": "address",
        "numberOfBytes": "20"
      },
      "t_array(t_struct(PoolInfo)6722_storage)dyn_storage": {
        "base": "t_struct(PoolInfo)6722_storage",
        "encoding": "dynamic_array",
        "label": "struct MasterChef.PoolInfo[]",
        "numberOfBytes": "32"
      },
      "t_contract(IERC20)969": {
        "encoding": "inplace",
        "label": "contract IERC20",
        "numberOfBytes": "20"
      },
      "t_contract(IUniswapV2Token)14882": {
        "encoding": "inplace",
        "label": "contract IUniswapV2Token",
        "numberOfBytes": "20"
      },
      "t_mapping(t_address,t_struct(UserInfo)6712_storage)": {
        "encoding": "mapping",
        "key": "t_address",
        "label": "mapping(address => struct MasterChef.UserInfo)",
        "numberOfBytes": "32",
        "value": "t_struct(UserInfo)6712_storage"
      },
      "t_mapping(t_uint256,t_mapping(t_address,t_struct(UserInfo)6712_storage))": {
        "encoding": "mapping",
        "key": "t_uint256",
        "label": "mapping(uint256 => mapping(address => struct MasterChef.UserInfo))",
        "numberOfBytes": "32",
        "value": "t_mapping(t_address,t_struct(UserInfo)6712_storage)"
      },
      "t_struct(PoolInfo)6722_storage": {
        "encoding": "inplace",
        "label": "struct MasterChef.PoolInfo",
        "members": [
          {
            "astId": 6715,
            "contract": "contracts/MasterChef.sol:MasterChef",
            "label": "lpToken",
            "offset": 0,
            "slot": "0",
            "type": "t_contract(IERC20)969"
          },
          {
            "astId": 6717,
            "contract": "contracts/MasterChef.sol:MasterChef",
            "label": "allocPoint",
            "offset": 0,
            "slot": "1",
            "type": "t_uint256"
          },
          {
            "astId": 6719,
            "contract": "contracts/MasterChef.sol:MasterChef",
            "label": "lastRewardBlock",
            "offset": 0,
            "slot": "2",
            "type": "t_uint256"
          },
          {
            "astId": 6721,
            "contract": "contracts/MasterChef.sol:MasterChef",
            "label": "accUniswapV2TokenPerShare",
            "offset": 0,
            "slot": "3",
            "type": "t_uint256"
          }
        ],
        "numberOfBytes": "128"
      },
      "t_struct(UserInfo)6712_storage": {
        "encoding": "inplace",
        "label": "struct MasterChef.UserInfo",
        "members": [
          {
            "astId": 6709,
            "contract": "contracts/MasterChef.sol:MasterChef",
            "label": "amount",
            "offset": 0,
            "slot": "0",
            "type": "t_uint256"
          },
          {
            "astId": 6711,
            "contract": "contracts/MasterChef.sol:MasterChef",
            "label": "rewardDebt",
            "offset": 0,
            "slot": "1",
            "type": "t_uint256"
          }
        ],
        "numberOfBytes": "64"
      },
      "t_uint256": {
        "encoding": "inplace",
        "label": "uint256",
        "numberOfBytes": "32"
      }
    }
  }
}