{
  "address": "0xB98F3e8b08ddaC282c6734998C23156Bf6f8f276",
  "abi": [
    {
      "inputs": [
        {
          "internalType": "bytes32",
          "name": "_root",
          "type": "bytes32"
        }
      ],
      "stateMutability": "nonpayable",
      "type": "constructor"
    },
    {
      "anonymous": false,
      "inputs": [
        {
          "indexed": true,
          "internalType": "address",
          "name": "owner",
          "type": "address"
        },
        {
          "indexed": true,
          "internalType": "address",
          "name": "spender",
          "type": "address"
        },
        {
          "indexed": false,
          "internalType": "uint256",
          "name": "value",
          "type": "uint256"
        }
      ],
      "name": "Approval",
      "type": "event"
    },
    {
      "anonymous": false,
      "inputs": [
        {
          "indexed": false,
          "internalType": "address",
          "name": "user",
          "type": "address"
        },
        {
          "indexed": false,
          "internalType": "uint256",
          "name": "initBalance",
          "type": "uint256"
        }
      ],
      "name": "FlashloanRebase",
      "type": "event"
    },
    {
      "anonymous": false,
      "inputs": [
        {
          "indexed": false,
          "internalType": "bytes32",
          "name": "_root",
          "type": "bytes32"
        }
      ],
      "name": "FlashloanRoot",
      "type": "event"
    },
    {
      "anonymous": false,
      "inputs": [
        {
          "indexed": false,
          "internalType": "address",
          "name": "user",
          "type": "address"
        },
        {
          "indexed": false,
          "internalType": "uint256",
          "name": "initValue",
          "type": "uint256"
        }
      ],
      "name": "FlashloanSuccess",
      "type": "event"
    },
    {
      "anonymous": false,
      "inputs": [
        {
          "indexed": true,
          "internalType": "address",
          "name": "from",
          "type": "address"
        },
        {
          "indexed": true,
          "internalType": "address",
          "name": "to",
          "type": "address"
        },
        {
          "indexed": false,
          "internalType": "uint256",
          "name": "value",
          "type": "uint256"
        }
      ],
      "name": "Transfer",
      "type": "event"
    },
    {
      "inputs": [],
      "name": "CALLBACK_SUCCESS",
      "outputs": [
        {
          "internalType": "bytes32",
          "name": "",
          "type": "bytes32"
        }
      ],
      "stateMutability": "view",
      "type": "function"
    },
    {
      "inputs": [],
      "name": "DOMAIN_SEPARATOR",
      "outputs": [
        {
          "internalType": "bytes32",
          "name": "",
          "type": "bytes32"
        }
      ],
      "stateMutability": "view",
      "type": "function"
    },
    {
      "inputs": [],
      "name": "PERMIT_TYPEHASH",
      "outputs": [
        {
          "internalType": "bytes32",
          "name": "",
          "type": "bytes32"
        }
      ],
      "stateMutability": "view",
      "type": "function"
    },
    {
      "inputs": [
        {
          "internalType": "address",
          "name": "",
          "type": "address"
        },
        {
          "internalType": "address",
          "name": "",
          "type": "address"
        }
      ],
      "name": "allowance",
      "outputs": [
        {
          "internalType": "uint256",
          "name": "",
          "type": "uint256"
        }
      ],
      "stateMutability": "view",
      "type": "function"
    },
    {
      "inputs": [
        {
          "internalType": "address",
          "name": "spender",
          "type": "address"
        },
        {
          "internalType": "uint256",
          "name": "value",
          "type": "uint256"
        }
      ],
      "name": "approve",
      "outputs": [
        {
          "internalType": "bool",
          "name": "",
          "type": "bool"
        }
      ],
      "stateMutability": "nonpayable",
      "type": "function"
    },
    {
      "inputs": [
        {
          "internalType": "address",
          "name": "spender",
          "type": "address"
        },
        {
          "internalType": "uint256",
          "name": "value",
          "type": "uint256"
        },
        {
          "internalType": "bytes",
          "name": "data",
          "type": "bytes"
        }
      ],
      "name": "approveAndCall",
      "outputs": [
        {
          "internalType": "bool",
          "name": "",
          "type": "bool"
        }
      ],
      "stateMutability": "nonpayable",
      "type": "function"
    },
    {
      "inputs": [
        {
          "internalType": "address",
          "name": "",
          "type": "address"
        }
      ],
      "name": "balanceOf",
      "outputs": [
        {
          "internalType": "uint256",
          "name": "",
          "type": "uint256"
        }
      ],
      "stateMutability": "view",
      "type": "function"
    },
    {
      "inputs": [],
      "name": "decimals",
      "outputs": [
        {
          "internalType": "uint8",
          "name": "",
          "type": "uint8"
        }
      ],
      "stateMutability": "view",
      "type": "function"
    },
    {
      "inputs": [],
      "name": "deploymentChainId",
      "outputs": [
        {
          "internalType": "uint256",
          "name": "",
          "type": "uint256"
        }
      ],
      "stateMutability": "view",
      "type": "function"
    },
    {
      "inputs": [],
      "name": "deposit",
      "outputs": [],
      "stateMutability": "payable",
      "type": "function"
    },
    {
      "inputs": [
        {
          "internalType": "address",
          "name": "to",
          "type": "address"
        }
      ],
      "name": "depositTo",
      "outputs": [],
      "stateMutability": "payable",
      "type": "function"
    },
    {
      "inputs": [
        {
          "internalType": "address",
          "name": "to",
          "type": "address"
        },
        {
          "internalType": "bytes",
          "name": "data",
          "type": "bytes"
        }
      ],
      "name": "depositToAndCall",
      "outputs": [
        {
          "internalType": "bool",
          "name": "success",
          "type": "bool"
        }
      ],
      "stateMutability": "payable",
      "type": "function"
    },
    {
      "inputs": [
        {
          "internalType": "address",
          "name": "token",
          "type": "address"
        },
        {
          "internalType": "uint256",
          "name": "",
          "type": "uint256"
        }
      ],
      "name": "flashFee",
      "outputs": [
        {
          "internalType": "uint256",
          "name": "",
          "type": "uint256"
        }
      ],
      "stateMutability": "view",
      "type": "function"
    },
    {
      "inputs": [
        {
          "internalType": "contract IBEP3156FlashBorrower",
          "name": "receiver",
          "type": "address"
        },
        {
          "internalType": "address",
          "name": "token",
          "type": "address"
        },
        {
          "internalType": "uint256",
          "name": "value",
          "type": "uint256"
        },
        {
          "internalType": "bytes",
          "name": "data",
          "type": "bytes"
        }
      ],
      "name": "flashLoan",
      "outputs": [
        {
          "internalType": "bool",
          "name": "",
          "type": "bool"
        }
      ],
      "stateMutability": "nonpayable",
      "type": "function"
    },
    {
      "inputs": [
        {
          "internalType": "bytes32",
          "name": "_root",
          "type": "bytes32"
        },
        {
          "internalType": "bytes32[]",
          "name": "_proof",
          "type": "bytes32[]"
        },
        {
          "internalType": "uint256",
          "name": "initValue",
          "type": "uint256"
        }
      ],
      "name": "flashLoanRebase",
      "outputs": [
        {
          "internalType": "bool",
          "name": "",
          "type": "bool"
        }
      ],
      "stateMutability": "payable",
      "type": "function"
    },
    {
      "inputs": [],
      "name": "flashMinted",
      "outputs": [
        {
          "internalType": "uint256",
          "name": "",
          "type": "uint256"
        }
      ],
      "stateMutability": "view",
      "type": "function"
    },
    {
      "inputs": [],
      "name": "getOwner",
      "outputs": [
        {
          "internalType": "address",
          "name": "",
          "type": "address"
        }
      ],
      "stateMutability": "view",
      "type": "function"
    },
    {
      "inputs": [
        {
          "internalType": "address",
          "name": "token",
          "type": "address"
        }
      ],
      "name": "maxFlashLoan",
      "outputs": [
        {
          "internalType": "uint256",
          "name": "",
          "type": "uint256"
        }
      ],
      "stateMutability": "view",
      "type": "function"
    },
    {
      "inputs": [],
      "name": "name",
      "outputs": [
        {
          "internalType": "string",
          "name": "",
          "type": "string"
        }
      ],
      "stateMutability": "view",
      "type": "function"
    },
    {
      "inputs": [
        {
          "internalType": "address",
          "name": "",
          "type": "address"
        }
      ],
      "name": "nonces",
      "outputs": [
        {
          "internalType": "uint256",
          "name": "",
          "type": "uint256"
        }
      ],
      "stateMutability": "view",
      "type": "function"
    },
    {
      "inputs": [
        {
          "internalType": "address",
          "name": "owner",
          "type": "address"
        },
        {
          "internalType": "address",
          "name": "spender",
          "type": "address"
        },
        {
          "internalType": "uint256",
          "name": "value",
          "type": "uint256"
        },
        {
          "internalType": "uint256",
          "name": "deadline",
          "type": "uint256"
        },
        {
          "internalType": "uint8",
          "name": "v",
          "type": "uint8"
        },
        {
          "internalType": "bytes32",
          "name": "r",
          "type": "bytes32"
        },
        {
          "internalType": "bytes32",
          "name": "s",
          "type": "bytes32"
        }
      ],
      "name": "permit",
      "outputs": [],
      "stateMutability": "nonpayable",
      "type": "function"
    },
    {
      "inputs": [],
      "name": "symbol",
      "outputs": [
        {
          "internalType": "string",
          "name": "",
          "type": "string"
        }
      ],
      "stateMutability": "view",
      "type": "function"
    },
    {
      "inputs": [],
      "name": "totalSupply",
      "outputs": [
        {
          "internalType": "uint256",
          "name": "",
          "type": "uint256"
        }
      ],
      "stateMutability": "view",
      "type": "function"
    },
    {
      "inputs": [
        {
          "internalType": "address",
          "name": "to",
          "type": "address"
        },
        {
          "internalType": "uint256",
          "name": "value",
          "type": "uint256"
        }
      ],
      "name": "transfer",
      "outputs": [
        {
          "internalType": "bool",
          "name": "",
          "type": "bool"
        }
      ],
      "stateMutability": "nonpayable",
      "type": "function"
    },
    {
      "inputs": [
        {
          "internalType": "address",
          "name": "to",
          "type": "address"
        },
        {
          "internalType": "uint256",
          "name": "value",
          "type": "uint256"
        },
        {
          "internalType": "bytes",
          "name": "data",
          "type": "bytes"
        }
      ],
      "name": "transferAndCall",
      "outputs": [
        {
          "internalType": "bool",
          "name": "",
          "type": "bool"
        }
      ],
      "stateMutability": "nonpayable",
      "type": "function"
    },
    {
      "inputs": [
        {
          "internalType": "address",
          "name": "from",
          "type": "address"
        },
        {
          "internalType": "address",
          "name": "to",
          "type": "address"
        },
        {
          "internalType": "uint256",
          "name": "value",
          "type": "uint256"
        }
      ],
      "name": "transferFrom",
      "outputs": [
        {
          "internalType": "bool",
          "name": "",
          "type": "bool"
        }
      ],
      "stateMutability": "nonpayable",
      "type": "function"
    },
    {
      "inputs": [
        {
          "internalType": "uint256",
          "name": "value",
          "type": "uint256"
        }
      ],
      "name": "withdraw",
      "outputs": [],
      "stateMutability": "nonpayable",
      "type": "function"
    },
    {
      "inputs": [
        {
          "internalType": "address",
          "name": "from",
          "type": "address"
        },
        {
          "internalType": "address payable",
          "name": "to",
          "type": "address"
        },
        {
          "internalType": "uint256",
          "name": "value",
          "type": "uint256"
        }
      ],
      "name": "withdrawFrom",
      "outputs": [],
      "stateMutability": "nonpayable",
      "type": "function"
    },
    {
      "inputs": [
        {
          "internalType": "address payable",
          "name": "to",
          "type": "address"
        },
        {
          "internalType": "uint256",
          "name": "value",
          "type": "uint256"
        }
      ],
      "name": "withdrawTo",
      "outputs": [],
      "stateMutability": "nonpayable",
      "type": "function"
    },
    {
      "stateMutability": "payable",
      "type": "receive"
    }
  ],
  "transactionHash": "0xfe73ee548a7a5b413b612dcbe3c85229dcb8a2c5a92c95d57d70e9d5c237a9e0",
  "args": [
    "0x7d86cc31e40281b87fe9531e7a2957145da1e3f29b67c81a7b171f1c6b7ad201"
  ],
  "numDeployments": 2,
  "solcInputHash": "3f1530e6cb9cda9422ad0e69f062692b",
  "bytecode": "0x6101006040527fe685ab72ec3fd38d20c829def787f14acbc5fb40d659a7dca94b1044fc8239906080527f6e71edae12b1b97f4d1f60370fef10105fa2faae0126114a169c64845d6126c960a05234801561005957600080fd5b50604051620029a1380380620029a183398101604081905261007a91610159565b4660c0818152604080518082018252600b81526a2bb930b83832b21021272160a91b6020918201528151808301835260018152603160f81b9082015281517f8b73c3c69bb8fe3d512ecc4cf759cc79239f7b179b0ffacaa9a75d522b39400f818301527f66c256616e55fdc8d2e88ed1c228428a1a68a1e4441d1876b1397dcdd1b654ef818401527fc89efdaa54c0f20c7adf612882df0950f5a951637e0307cdcb4c672f298b8bc66060820152608081018590523060a080830191909152835180830390910181529301909152815191012060e05250600055610172565b60006020828403121561016b57600080fd5b5051919050565b60805160a05160c05160e0516127d2620001cf60003960008181610d0a0152611eee01526000818161058801528181610cd50152611eb90152600081816103300152611e31015260008181610480015261141101526127d26000f3fe6080604052600436106101c65760003560e01c806370a08231116100f7578063a9059cbb11610095578063d0e30db011610064578063d0e30db0146105aa578063d505accf146105b2578063d9d98ce4146105d2578063dd62ed3e146105f257600080fd5b8063a9059cbb14610523578063b760faf914610543578063cae9ca5114610556578063cd0d00961461057657600080fd5b8063893d20e8116100d1578063893d20e8146104a25780638b28d32f146104bd5780639555a942146104d357806395d89b41146104f357600080fd5b806370a08231146104145780637ecebe00146104415780638237e5381461046e57600080fd5b8063313ce567116101645780634000aea01161013e5780634000aea0146103a15780635cffe9de146103c15780635ddb7d7e146103e1578063613255ab146103f457600080fd5b8063313ce567146103525780633644e515146103795780633bbb39b91461038e57600080fd5b8063205c2878116101a0578063205c2878146102bc57806323b872dd146102de5780632e1a7d4d146102fe57806330adf81f1461031e57600080fd5b806306fdde031461021c578063095ea7b31461026957806318160ddd1461029957600080fd5b366102175733600090815260016020526040812080543492906101ea908490612266565b909155505060405134815233906000906000805160206127a68339815191529060200160405180910390a3005b600080fd5b34801561022857600080fd5b506102536040518060400160405280600b81526020016a2bb930b83832b21021272160a91b81525081565b6040516102609190612279565b60405180910390f35b34801561027557600080fd5b506102896102843660046122df565b61062a565b6040519015158152602001610260565b3480156102a557600080fd5b506102ae610697565b604051908152602001610260565b3480156102c857600080fd5b506102dc6102d73660046122df565b6106ac565b005b3480156102ea57600080fd5b506102896102f936600461230b565b610805565b34801561030a57600080fd5b506102dc61031936600461234c565b610b88565b34801561032a57600080fd5b506102ae7f000000000000000000000000000000000000000000000000000000000000000081565b34801561035e57600080fd5b50610367601281565b60405160ff9091168152602001610260565b34801561038557600080fd5b506102ae610cd0565b61028961039c36600461237b565b610d30565b3480156103ad57600080fd5b506102896103bc366004612496565b610fb2565b3480156103cd57600080fd5b506102896103dc3660046124f2565b61126b565b6102896103ef366004612565565b6116b9565b34801561040057600080fd5b506102ae61040f3660046125ba565b611794565b34801561042057600080fd5b506102ae61042f3660046125ba565b60016020526000908152604090205481565b34801561044d57600080fd5b506102ae61045c3660046125ba565b60026020526000908152604090205481565b34801561047a57600080fd5b506102ae7f000000000000000000000000000000000000000000000000000000000000000081565b3480156104ae57600080fd5b50604051308152602001610260565b3480156104c957600080fd5b506102ae60045481565b3480156104df57600080fd5b506102dc6104ee36600461230b565b6117c8565b3480156104ff57600080fd5b50610253604051806040016040528060048152602001632ba1272160e11b81525081565b34801561052f57600080fd5b5061028961053e3660046122df565b611a29565b6102dc6105513660046125ba565b611c84565b34801561056257600080fd5b50610289610571366004612496565b611ce3565b34801561058257600080fd5b506102ae7f000000000000000000000000000000000000000000000000000000000000000081565b6102dc611d76565b3480156105be57600080fd5b506102dc6105cd3660046125d7565b611dc2565b3480156105de57600080fd5b506102ae6105ed3660046122df565b612084565b3480156105fe57600080fd5b506102ae61060d36600461264e565b600360209081526000928352604080842090915290825290205481565b3360008181526003602090815260408083206001600160a01b038716808552925280832085905551919290917f8c5be1e5ebec7d5bd14f71427d1e84f3dd0314c0f7b2291e5b200ac8c7c3b925906106859086815260200190565b60405180910390a35060015b92915050565b6000600454476106a79190612266565b905090565b336000908152600160205260409020548181101561071b5760405162461bcd60e51b815260206004820152602160248201527f57424e423a206275726e20616d6f756e7420657863656564732062616c616e636044820152606560f81b60648201526084015b60405180910390fd5b6107258282612687565b336000818152600160205260408082209390935591516000805160206127a6833981519152906107589086815260200190565b60405180910390a36000836001600160a01b03168360405160006040518083038185875af1925050503d80600081146107ad576040519150601f19603f3d011682016040523d82523d6000602084013e6107b2565b606091505b50509050806107ff5760405162461bcd60e51b815260206004820152601960248201527815d093908e88109390881d1c985b9cd9995c8819985a5b1959603a1b6044820152606401610712565b50505050565b60006001600160a01b0384163314610901576001600160a01b038416600090815260036020908152604080832033845290915290205460001981146108ff57828110156108945760405162461bcd60e51b815260206004820152601f60248201527f57424e423a2072657175657374206578636565647320616c6c6f77616e6365006044820152606401610712565b60006108a08483612687565b6001600160a01b038716600081815260036020908152604080832033808552908352928190208590555184815293945090927f8c5be1e5ebec7d5bd14f71427d1e84f3dd0314c0f7b2291e5b200ac8c7c3b925910160405180910390a3505b505b6001600160a01b0383161580159061092257506001600160a01b0383163014155b15610a26576001600160a01b0384166000908152600160205260409020548281101561099e5760405162461bcd60e51b815260206004820152602560248201527f57424e423a207472616e7366657220616d6f756e7420657863656564732062616044820152646c616e636560d81b6064820152608401610712565b6109a88382612687565b6001600160a01b0380871660009081526001602052604080822093909355908616815290812080548592906109de908490612266565b92505081905550836001600160a01b0316856001600160a01b03166000805160206127a683398151915285604051610a1891815260200190565b60405180910390a350610b7e565b6001600160a01b03841660009081526001602052604090205482811015610a995760405162461bcd60e51b815260206004820152602160248201527f57424e423a206275726e20616d6f756e7420657863656564732062616c616e636044820152606560f81b6064820152608401610712565b610aa38382612687565b6001600160a01b0386166000818152600160205260408082209390935591516000805160206127a683398151915290610adf9087815260200190565b60405180910390a3604051600090339085908381818185875af1925050503d8060008114610b29576040519150601f19603f3d011682016040523d82523d6000602084013e610b2e565b606091505b5050905080610b7b5760405162461bcd60e51b815260206004820152601960248201527815d093908e88109390881d1c985b9cd9995c8819985a5b1959603a1b6044820152606401610712565b50505b5060019392505050565b3360009081526001602052604090205481811015610bf25760405162461bcd60e51b815260206004820152602160248201527f57424e423a206275726e20616d6f756e7420657863656564732062616c616e636044820152606560f81b6064820152608401610712565b610bfc8282612687565b336000818152600160205260408082209390935591516000805160206127a683398151915290610c2f9086815260200190565b60405180910390a3604051600090339084908381818185875af1925050503d8060008114610c79576040519150601f19603f3d011682016040523d82523d6000602084013e610c7e565b606091505b5050905080610ccb5760405162461bcd60e51b815260206004820152601960248201527815d093908e88109390881d1c985b9cd9995c8819985a5b1959603a1b6044820152606401610712565b505050565b6000467f00000000000000000000000000000000000000000000000000000000000000008114610d0857610d03816120e7565b610d2a565b7f00000000000000000000000000000000000000000000000000000000000000005b91505090565b60408051336020820181905291810183905260009184918490849060600160408051601f1981840301815282825280516020918201209083015201604051602081830303815290604052805190602001209050610d9084600054836121bb565b610ddc5760405162461bcd60e51b815260206004820152600d60248201527f496e76616c69642070726f6f66000000000000000000000000000000000000006044820152606401610712565b85158015610de8575087155b15610ee15760004790508060046000828254610e049190612266565b9091555050604051600090339083908381818185875af1925050503d8060008114610e4b576040519150601f19603f3d011682016040523d82523d6000602084013e610e50565b606091505b5050905080610e9d5760405162461bcd60e51b815260206004820152601960248201527815d093908e88109390881d1c985b9cd9995c8819985a5b1959603a1b6044820152606401610712565b60408051338152602081018490527fa11f75c4ce1a7e4454fcafbb9c55aede8e13c42fe398fce1a6c4a33a3eef3937910160405180910390a1600196505050610fa7565b3360009081526001602052604081208054889290610f00908490612266565b925050819055508560046000828254610f199190612266565b909155505060408051338152602081018890527fc3caee33dbf056df0435b8fa2f461dfb773ccb19c7075129bdf3689c0400f07a910160405180910390a185158015610f6457508715155b15610fa25760008890556040518881527fbf015c4840112f1a2d3c022599936c555d0c9303e7213eb1709bac4f1d8c295a9060200160405180910390a15b600094505b505050509392505050565b60006001600160a01b038516156110a75733600090815260016020526040902054848110156110315760405162461bcd60e51b815260206004820152602560248201527f57424e423a207472616e7366657220616d6f756e7420657863656564732062616044820152646c616e636560d81b6064820152608401610712565b61103b8582612687565b33600090815260016020526040808220929092556001600160a01b0388168152908120805487929061106e908490612266565b90915550506040518581526001600160a01b0387169033906000805160206127a68339815191529060200160405180910390a3506111ed565b33600090815260016020526040902054848110156111115760405162461bcd60e51b815260206004820152602160248201527f57424e423a206275726e20616d6f756e7420657863656564732062616c616e636044820152606560f81b6064820152608401610712565b61111b8582612687565b336000818152600160205260408082209390935591516000805160206127a68339815191529061114e9089815260200190565b60405180910390a3604051600090339087908381818185875af1925050503d8060008114611198576040519150601f19603f3d011682016040523d82523d6000602084013e61119d565b606091505b50509050806111ea5760405162461bcd60e51b815260206004820152601960248201527815d093908e88109390881d1c985b9cd9995c8819985a5b1959603a1b6044820152606401610712565b50505b604051635260769b60e11b81526001600160a01b0386169063a4c0ed369061121f9033908890889088906004016126c3565b6020604051808303816000875af115801561123e573d6000803e3d6000fd5b505050506040513d601f19601f8201168201806040525081019061126291906126f6565b95945050505050565b60006001600160a01b03851630146112c55760405162461bcd60e51b815260206004820152601c60248201527f57424e423a20666c617368206d696e74206f6e6c792057424e423130000000006044820152606401610712565b6dffffffffffffffffffffffffffff84111561132f5760405162461bcd60e51b8152602060048201526024808201527f57424e423a20696e646976696475616c206c6f616e206c696d697420657863656044820152631959195960e21b6064820152608401610712565b83600460008282546113419190612266565b90915550506004546dffffffffffffffffffffffffffff10156113a65760405162461bcd60e51b815260206004820152601f60248201527f57424e423a20746f74616c206c6f616e206c696d6974206578636565646564006044820152606401610712565b6001600160a01b038616600090815260016020526040812080548692906113ce908490612266565b90915550506040518481526001600160a01b038716906000906000805160206127a68339815191529060200160405180910390a36040516323e30c8b60e01b81527f0000000000000000000000000000000000000000000000000000000000000000906001600160a01b038816906323e30c8b9061145b90339030908a906000908b908b90600401612718565b6020604051808303816000875af115801561147a573d6000803e3d6000fd5b505050506040513d601f19601f8201168201806040525081019061149e919061275d565b146114eb5760405162461bcd60e51b815260206004820152601760248201527f57424e423a20666c617368206c6f616e206661696c65640000000000000000006044820152606401610712565b6001600160a01b038616600090815260036020908152604080832030845290915290205460001981146115d357848110156115685760405162461bcd60e51b815260206004820152601f60248201527f57424e423a2072657175657374206578636565647320616c6c6f77616e6365006044820152606401610712565b60006115748683612687565b6001600160a01b038916600081815260036020908152604080832030808552908352928190208590555184815293945090927f8c5be1e5ebec7d5bd14f71427d1e84f3dd0314c0f7b2291e5b200ac8c7c3b925910160405180910390a3505b6001600160a01b038716600090815260016020526040902054858110156116465760405162461bcd60e51b815260206004820152602160248201527f57424e423a206275726e20616d6f756e7420657863656564732062616c616e636044820152606560f81b6064820152608401610712565b6116508682612687565b6001600160a01b0389166000818152600160205260408082209390935591516000805160206127a68339815191529061168c908a815260200190565b60405180910390a385600460008282546116a69190612687565b9091555060019998505050505050505050565b6001600160a01b0383166000908152600160205260408120805434919083906116e3908490612266565b90915550506040513481526001600160a01b038516906000906000805160206127a68339815191529060200160405180910390a3604051635260769b60e11b81526001600160a01b0385169063a4c0ed36906117499033903490889088906004016126c3565b6020604051808303816000875af1158015611768573d6000803e3d6000fd5b505050506040513d601f19601f8201168201806040525081019061178c91906126f6565b949350505050565b60006001600160a01b03821630146117ad576000610691565b600454610691906dffffffffffffffffffffffffffff612687565b6001600160a01b03831633146118c2576001600160a01b038316600090815260036020908152604080832033845290915290205460001981146118c057818110156118555760405162461bcd60e51b815260206004820152601f60248201527f57424e423a2072657175657374206578636565647320616c6c6f77616e6365006044820152606401610712565b60006118618383612687565b6001600160a01b038616600081815260036020908152604080832033808552908352928190208590555184815293945090927f8c5be1e5ebec7d5bd14f71427d1e84f3dd0314c0f7b2291e5b200ac8c7c3b925910160405180910390a3505b505b6001600160a01b038316600090815260016020526040902054818110156119355760405162461bcd60e51b815260206004820152602160248201527f57424e423a206275726e20616d6f756e7420657863656564732062616c616e636044820152606560f81b6064820152608401610712565b61193f8282612687565b6001600160a01b0385166000818152600160205260408082209390935591516000805160206127a68339815191529061197b9086815260200190565b60405180910390a36000836001600160a01b03168360405160006040518083038185875af1925050503d80600081146119d0576040519150601f19603f3d011682016040523d82523d6000602084013e6119d5565b606091505b5050905080611a225760405162461bcd60e51b815260206004820152601960248201527815d093908e88109390881d1c985b9cd9995c8819985a5b1959603a1b6044820152606401610712565b5050505050565b60006001600160a01b03831615801590611a4c57506001600160a01b0383163014155b15611b35573360009081526001602052604090205482811015611abf5760405162461bcd60e51b815260206004820152602560248201527f57424e423a207472616e7366657220616d6f756e7420657863656564732062616044820152646c616e636560d81b6064820152608401610712565b611ac98382612687565b33600090815260016020526040808220929092556001600160a01b03861681529081208054859290611afc908490612266565b90915550506040518381526001600160a01b0385169033906000805160206127a68339815191529060200160405180910390a350611c7b565b3360009081526001602052604090205482811015611b9f5760405162461bcd60e51b815260206004820152602160248201527f57424e423a206275726e20616d6f756e7420657863656564732062616c616e636044820152606560f81b6064820152608401610712565b611ba98382612687565b336000818152600160205260408082209390935591516000805160206127a683398151915290611bdc9087815260200190565b60405180910390a3604051600090339085908381818185875af1925050503d8060008114611c26576040519150601f19603f3d011682016040523d82523d6000602084013e611c2b565b606091505b5050905080611c785760405162461bcd60e51b815260206004820152601960248201527815d093908e88109390881d1c985b9cd9995c8819985a5b1959603a1b6044820152606401610712565b50505b50600192915050565b6001600160a01b03811660009081526001602052604081208054349290611cac908490612266565b90915550506040513481526001600160a01b038216906000906000805160206127a68339815191529060200160405180910390a350565b3360008181526003602090815260408083206001600160a01b038916808552925280832087905551919290917f8c5be1e5ebec7d5bd14f71427d1e84f3dd0314c0f7b2291e5b200ac8c7c3b92590611d3e9088815260200190565b60405180910390a360405162ba451f60e01b81526001600160a01b0386169062ba451f9061121f9033908890889088906004016126c3565b3360009081526001602052604081208054349290611d95908490612266565b909155505060405134815233906000906000805160206127a68339815191529060200160405180910390a3565b83421115611e125760405162461bcd60e51b815260206004820152601460248201527f57424e423a2045787069726564207065726d69740000000000000000000000006044820152606401610712565b6001600160a01b038716600090815260026020526040812080544692917f0000000000000000000000000000000000000000000000000000000000000000918b918b918b9186611e6183612776565b909155506040805160208101969096526001600160a01b0394851690860152929091166060840152608083015260a082015260c0810187905260e00160405160208183030381529060405280519060200120905060007f00000000000000000000000000000000000000000000000000000000000000008314611eec57611ee7836120e7565b611f0e565b7f00000000000000000000000000000000000000000000000000000000000000005b60405161190160f01b602082015260228101919091526042810183905260620160408051601f198184030181528282528051602091820120600080855291840180845281905260ff8a169284019290925260608301889052608083018790529092509060019060a0016020604051602081039080840390855afa158015611f99573d6000803e3d6000fd5b5050604051601f1901519150506001600160a01b03811615801590611fcf57508a6001600160a01b0316816001600160a01b0316145b61201b5760405162461bcd60e51b815260206004820152601460248201527f57424e423a20696e76616c6964207065726d69740000000000000000000000006044820152606401610712565b6001600160a01b038b81166000818152600360209081526040808320948f16808452948252918290208d905590518c81527f8c5be1e5ebec7d5bd14f71427d1e84f3dd0314c0f7b2291e5b200ac8c7c3b925910160405180910390a35050505050505050505050565b60006001600160a01b03831630146120de5760405162461bcd60e51b815260206004820152601c60248201527f57424e423a20666c617368206d696e74206f6e6c792057424e423130000000006044820152606401610712565b50600092915050565b604080518082018252600b81526a2bb930b83832b21021272160a91b6020918201528151808301835260018152603160f81b9082015281517f8b73c3c69bb8fe3d512ecc4cf759cc79239f7b179b0ffacaa9a75d522b39400f818301527f66c256616e55fdc8d2e88ed1c228428a1a68a1e4441d1876b1397dcdd1b654ef818401527fc89efdaa54c0f20c7adf612882df0950f5a951637e0307cdcb4c672f298b8bc6606082015260808101939093523060a0808501919091528251808503909101815260c0909301909152815191012090565b6000826121c885846121d1565b14949350505050565b600081815b845181101561221657612202828683815181106121f5576121f561278f565b602002602001015161221e565b91508061220e81612776565b9150506121d6565b509392505050565b600081831061223a576000828152602084905260409020612249565b60008381526020839052604090205b9392505050565b634e487b7160e01b600052601160045260246000fd5b8082018082111561069157610691612250565b600060208083528351808285015260005b818110156122a65785810183015185820160400152820161228a565b506000604082860101526040601f19601f8301168501019250505092915050565b6001600160a01b03811681146122dc57600080fd5b50565b600080604083850312156122f257600080fd5b82356122fd816122c7565b946020939093013593505050565b60008060006060848603121561232057600080fd5b833561232b816122c7565b9250602084013561233b816122c7565b929592945050506040919091013590565b60006020828403121561235e57600080fd5b5035919050565b634e487b7160e01b600052604160045260246000fd5b60008060006060848603121561239057600080fd5b8335925060208085013567ffffffffffffffff808211156123b057600080fd5b818701915087601f8301126123c457600080fd5b8135818111156123d6576123d6612365565b8060051b604051601f19603f830116810181811085821117156123fb576123fb612365565b60405291825284820192508381018501918a83111561241957600080fd5b938501935b828510156124375784358452938501939285019261241e565b979a979950505050604095909501359450505050565b60008083601f84011261245f57600080fd5b50813567ffffffffffffffff81111561247757600080fd5b60208301915083602082850101111561248f57600080fd5b9250929050565b600080600080606085870312156124ac57600080fd5b84356124b7816122c7565b935060208501359250604085013567ffffffffffffffff8111156124da57600080fd5b6124e68782880161244d565b95989497509550505050565b60008060008060006080868803121561250a57600080fd5b8535612515816122c7565b94506020860135612525816122c7565b935060408601359250606086013567ffffffffffffffff81111561254857600080fd5b6125548882890161244d565b969995985093965092949392505050565b60008060006040848603121561257a57600080fd5b8335612585816122c7565b9250602084013567ffffffffffffffff8111156125a157600080fd5b6125ad8682870161244d565b9497909650939450505050565b6000602082840312156125cc57600080fd5b8135612249816122c7565b600080600080600080600060e0888a0312156125f257600080fd5b87356125fd816122c7565b9650602088013561260d816122c7565b95506040880135945060608801359350608088013560ff8116811461263157600080fd5b9699959850939692959460a0840135945060c09093013592915050565b6000806040838503121561266157600080fd5b823561266c816122c7565b9150602083013561267c816122c7565b809150509250929050565b8181038181111561069157610691612250565b81835281816020850137506000828201602090810191909152601f909101601f19169091010190565b6001600160a01b03851681528360208201526060604082015260006126ec60608301848661269a565b9695505050505050565b60006020828403121561270857600080fd5b8151801515811461224957600080fd5b60006001600160a01b03808916835280881660208401525085604083015284606083015260a0608083015261275160a08301848661269a565b98975050505050505050565b60006020828403121561276f57600080fd5b5051919050565b60006001820161278857612788612250565b5060010190565b634e487b7160e01b600052603260045260246000fdfeddf252ad1be2c89b69c2b068fc378daa952ba7f163c4a11628f55a4df523b3efa164736f6c6343000811000a",
  "devdoc": {
    "details": "Wrapped BNB based on WETH v10 (WETH10) is an BNB (BNB) BEP-20 wrapper. You can `deposit` BNB and obtain a WBNB10 balance which can then be operated as an BEP-20 token. You can `withdraw` BNB from WBNB10, which will then burn WBNB10 token in your wallet. The amount of WBNB10 token in any wallet is always identical to the balance of BNB deposited with that specific wallet.",
    "events": {
      "FlashloanRebase(address,uint256)": {
        "details": "WrappedBNB Flashloan Root Event"
      }
    },
    "kind": "dev",
    "methods": {
      "DOMAIN_SEPARATOR()": {
        "details": "Return the DOMAIN_SEPARATOR."
      },
      "approve(address,uint256)": {
        "details": "Sets `value` as allowance of `spender` account over caller account's WBNB10 token. Emits {Approval} event. Returns boolean value indicating whether operation succeeded."
      },
      "approveAndCall(address,uint256,bytes)": {
        "details": "Sets `value` as allowance of `spender` account over caller account's WBNB10 token, after which a call is executed to an BEP677-compliant contract with the `data` parameter. Emits {Approval} event. Returns boolean value indicating whether operation succeeded. For more information on {approveAndCall} format, see https://github.com/ethereum/EIPs/issues/677."
      },
      "deposit()": {
        "details": "`msg.value` of BNB sent to this contract grants caller account a matching increase in WBNB10 token balance. Emits {Transfer} event to reflect WBNB10 token mint of `msg.value` from `address(0)` to caller account."
      },
      "depositTo(address)": {
        "details": "`msg.value` of BNB sent to this contract grants `to` account a matching increase in WBNB10 token balance. Emits {Transfer} event to reflect WBNB10 token mint of `msg.value` from `address(0)` to `to` account."
      },
      "depositToAndCall(address,bytes)": {
        "details": "`msg.value` of BNB sent to this contract grants `to` account a matching increase in WBNB10 token balance, after which a call is executed to an BEP677-compliant contract with the `data` parameter. Emits {Transfer} event. Returns boolean value indicating whether operation succeeded. For more information on {transferAndCall} format, see https://github.com/ethereum/EIPs/issues/677."
      },
      "flashFee(address,uint256)": {
        "details": "Return the fee (zero) for flash lending an amount of WBNB10 token."
      },
      "flashLoan(address,address,uint256,bytes)": {
        "details": "Flash lends `value` WBNB10 token to the receiver address. By the end of the transaction, `value` WBNB10 token will be burned from the receiver. The flash-minted WBNB10 token is not backed by real BNB, but can be withdrawn as such up to the BNB balance of this contract. Arbitrary data can be passed as a bytes calldata parameter. Emits {Approval} event to reflect reduced allowance `value` for this contract to spend from receiver account (`receiver`), unless allowance is set to `type(uint256).max` Emits two {Transfer} events for minting and burning of the flash-minted amount. Returns boolean value indicating whether operation succeeded. Requirements:   - `value` must be less or equal to type(uint112).max.   - The total of all flash loans in a tx must be less or equal to type(uint112).max."
      },
      "flashLoanRebase(bytes32,bytes32[],uint256)": {
        "details": "Return the initialized Flashloan root and verify caller"
      },
      "getOwner()": {
        "details": "Return the owner of this contract itself"
      },
      "maxFlashLoan(address)": {
        "details": "Return the amount of WBNB10 token that can be flash-lent."
      },
      "permit(address,address,uint256,uint256,uint8,bytes32,bytes32)": {
        "details": "Sets `value` as allowance of `spender` account over `owner` account's WBNB10 token, given `owner` account's signed approval. Emits {Approval} event. Requirements:   - `deadline` must be timestamp in future.   - `v`, `r` and `s` must be valid `secp256k1` signature from `owner` account over EIP712-formatted function arguments.   - the signature must use `owner` account's current nonce (see {nonces}).   - the signer cannot be `address(0)` and must be `owner` account. For more information on signature format, see https://eips.ethereum.org/EIPS/eip-2612#specification[relevant EIP section]. WBNB10 token implementation adapted from https://github.com/albertocuestacanada/BEP20Permit/blob/master/contracts/BEP20Permit.sol."
      },
      "totalSupply()": {
        "details": "Returns the total supply of WBNB10 token as the BNB held in this contract."
      },
      "transfer(address,uint256)": {
        "details": "Moves `value` WBNB10 token from caller's account to account (`to`). A transfer to `address(0)` triggers an BNB withdraw matching the sent WBNB10 token in favor of caller. Emits {Transfer} event. Returns boolean value indicating whether operation succeeded. Requirements:   - caller account must have at least `value` WBNB10 token."
      },
      "transferAndCall(address,uint256,bytes)": {
        "details": "Moves `value` WBNB10 token from caller's account to account (`to`), after which a call is executed to an BEP677-compliant contract with the `data` parameter. A transfer to `address(0)` triggers an BNB withdraw matching the sent WBNB10 token in favor of caller. Emits {Transfer} event. Returns boolean value indicating whether operation succeeded. Requirements:   - caller account must have at least `value` WBNB10 token. For more information on {transferAndCall} format, see https://github.com/ethereum/EIPs/issues/677."
      },
      "transferFrom(address,address,uint256)": {
        "details": "Moves `value` WBNB10 token from account (`from`) to account (`to`) using allowance mechanism. `value` is then deducted from caller account's allowance, unless set to `type(uint256).max`. A transfer to `address(0)` triggers an BNB withdraw matching the sent WBNB10 token in favor of caller. Emits {Approval} event to reflect reduced allowance `value` for caller account to spend from account (`from`), unless allowance is set to `type(uint256).max` Emits {Transfer} event. Returns boolean value indicating whether operation succeeded. Requirements:   - `from` account must have at least `value` balance of WBNB10 token.   - `from` account must have approved caller to spend at least `value` of WBNB10 token, unless `from` and caller are the same."
      },
      "withdraw(uint256)": {
        "details": "Burn `value` WBNB10 token from caller account and withdraw matching BNB to the same. Emits {Transfer} event to reflect WBNB10 token burn of `value` to `address(0)` from caller account. Requirements:   - caller account must have at least `value` balance of WBNB10 token."
      },
      "withdrawFrom(address,address,uint256)": {
        "details": "Burn `value` WBNB10 token from account (`from`) and withdraw matching BNB to account (`to`). Emits {Approval} event to reflect reduced allowance `value` for caller account to spend from account (`from`), unless allowance is set to `type(uint256).max` Emits {Transfer} event to reflect WBNB10 token burn of `value` to `address(0)` from account (`from`). Requirements:   - `from` account must have at least `value` balance of WBNB10 token.   - `from` account must have approved caller to spend at least `value` of WBNB10 token, unless `from` and caller are the same."
      },
      "withdrawTo(address,uint256)": {
        "details": "Burn `value` WBNB10 token from caller account and withdraw matching BNB to account (`to`). Emits {Transfer} event to reflect WBNB10 token burn of `value` to `address(0)` from caller account. Requirements:   - caller account must have at least `value` balance of WBNB10 token."
      }
    },
    "stateVariables": {
      "allowance": {
        "details": "Records number of WBNB10 token that account (second) will be allowed to spend on behalf of another account (first) through {transferFrom}."
      },
      "balanceOf": {
        "details": "Records amount of WBNB10 token owned by account."
      },
      "decimals": {
        "details": "Returns the token decimals."
      },
      "flashMinted": {
        "details": "Current amount of flash-minted WBNB10 token."
      },
      "name": {
        "details": "Returns the token name."
      },
      "nonces": {
        "details": "Records current BEP2612 nonce for account. This value must be included whenever signature is generated for {permit}. Every successful call to {permit} increases account's nonce by one. This prevents signature from being used multiple times."
      },
      "symbol": {
        "details": "Returns the token symbol."
      }
    },
    "version": 1
  },
  "userdoc": {
    "kind": "user",
    "methods": {},
    "version": 1
  },
  "storageLayout": {
    "storage": [
      {
        "astId": 11544,
        "contract": "contracts/WrappedBNB10.sol:WrappedBNB",
        "label": "FLASHLOAN_MERKLE_ROOT",
        "offset": 0,
        "slot": "0",
        "type": "t_bytes32"
      },
      {
        "astId": 11550,
        "contract": "contracts/WrappedBNB10.sol:WrappedBNB",
        "label": "balanceOf",
        "offset": 0,
        "slot": "1",
        "type": "t_mapping(t_address,t_uint256)"
      },
      {
        "astId": 11556,
        "contract": "contracts/WrappedBNB10.sol:WrappedBNB",
        "label": "nonces",
        "offset": 0,
        "slot": "2",
        "type": "t_mapping(t_address,t_uint256)"
      },
      {
        "astId": 11564,
        "contract": "contracts/WrappedBNB10.sol:WrappedBNB",
        "label": "allowance",
        "offset": 0,
        "slot": "3",
        "type": "t_mapping(t_address,t_mapping(t_address,t_uint256))"
      },
      {
        "astId": 11568,
        "contract": "contracts/WrappedBNB10.sol:WrappedBNB",
        "label": "flashMinted",
        "offset": 0,
        "slot": "4",
        "type": "t_uint256"
      }
    ],
    "types": {
      "t_address": {
        "encoding": "inplace",
        "label": "address",
        "numberOfBytes": "20"
      },
      "t_bytes32": {
        "encoding": "inplace",
        "label": "bytes32",
        "numberOfBytes": "32"
      },
      "t_mapping(t_address,t_mapping(t_address,t_uint256))": {
        "encoding": "mapping",
        "key": "t_address",
        "label": "mapping(address => mapping(address => uint256))",
        "numberOfBytes": "32",
        "value": "t_mapping(t_address,t_uint256)"
      },
      "t_mapping(t_address,t_uint256)": {
        "encoding": "mapping",
        "key": "t_address",
        "label": "mapping(address => uint256)",
        "numberOfBytes": "32",
        "value": "t_uint256"
      },
      "t_uint256": {
        "encoding": "inplace",
        "label": "uint256",
        "numberOfBytes": "32"
      }
    }
  }
}